{
  "_format": "hh-sol-artifact-1",
  "contractName": "Ape",
  "sourceName": "contracts/Ape.sol",
  "abi": [
    {
      "anonymous": false,
      "inputs": [
        {
          "indexed": true,
          "internalType": "address",
          "name": "previousOwner",
          "type": "address"
        },
        {
          "indexed": true,
          "internalType": "address",
          "name": "newOwner",
          "type": "address"
        }
      ],
      "name": "OwnershipTransferred",
      "type": "event"
    },
    {
      "inputs": [
        {
          "internalType": "contract IUniswapV2Pair",
          "name": "pair0",
          "type": "address"
        },
        {
          "internalType": "contract IUniswapV2Pair",
          "name": "pair1",
          "type": "address"
        },
        {
          "internalType": "contract IUniswapV2Router02",
          "name": "router0",
          "type": "address"
        },
        {
          "internalType": "contract IUniswapV2Router02",
          "name": "router1",
          "type": "address"
        },
        {
          "internalType": "contract IERC20",
          "name": "token0",
          "type": "address"
        },
        {
          "internalType": "contract IERC20",
          "name": "token1",
          "type": "address"
        },
        {
          "internalType": "uint256",
          "name": "amount1",
          "type": "uint256"
        }
      ],
      "name": "ape",
      "outputs": [],
      "stateMutability": "nonpayable",
      "type": "function"
    },
    {
      "inputs": [],
      "name": "owner",
      "outputs": [
        {
          "internalType": "address",
          "name": "",
          "type": "address"
        }
      ],
      "stateMutability": "view",
      "type": "function"
    },
    {
      "inputs": [],
      "name": "renounceOwnership",
      "outputs": [],
      "stateMutability": "nonpayable",
      "type": "function"
    },
    {
      "inputs": [
        {
          "internalType": "address",
          "name": "newOwner",
          "type": "address"
        }
      ],
      "name": "transferOwnership",
      "outputs": [],
      "stateMutability": "nonpayable",
      "type": "function"
    },
    {
      "inputs": [
        {
          "internalType": "address",
          "name": "sender",
          "type": "address"
        },
        {
          "internalType": "uint256",
          "name": "amount0",
          "type": "uint256"
        },
        {
          "internalType": "uint256",
          "name": "amount1",
          "type": "uint256"
        },
        {
          "internalType": "bytes",
          "name": "data",
          "type": "bytes"
        }
      ],
      "name": "uniswapV2Call",
      "outputs": [],
      "stateMutability": "nonpayable",
      "type": "function"
    }
  ],
  "bytecode": "0x608060405234801561001057600080fd5b5061002d61002261003260201b60201c565b61003a60201b60201c565b6100fe565b600033905090565b60008060009054906101000a900473ffffffffffffffffffffffffffffffffffffffff169050816000806101000a81548173ffffffffffffffffffffffffffffffffffffffff021916908373ffffffffffffffffffffffffffffffffffffffff1602179055508173ffffffffffffffffffffffffffffffffffffffff168173ffffffffffffffffffffffffffffffffffffffff167f8be0079c531659141344cd1fd0a4f28419497f9722a3daafe3b4186f6b6457e060405160405180910390a35050565b6118328061010d6000396000f3fe608060405234801561001057600080fd5b50600436106100575760003560e01c806310d1e85c1461005c57806362cce99514610078578063715018a6146100945780638da5cb5b1461009e578063f2fde38b146100bc575b600080fd5b61007660048036038101906100719190610d0c565b6100d8565b005b610092600480360381019061008d9190610df6565b610674565b005b61009c6108fb565b005b6100a6610983565b6040516100b391906110a7565b60405180910390f35b6100d660048036038101906100d19190610ce3565b6109ac565b005b600080600080600080600088888101906100f29190610df6565b96509650965096509650965096508673ffffffffffffffffffffffffffffffffffffffff163373ffffffffffffffffffffffffffffffffffffffff161461016e576040517f08c379a0000000000000000000000000000000000000000000000000000000008152600401610165906111fa565b60405180910390fd5b60008b146101b1576040517f08c379a00000000000000000000000000000000000000000000000000000000081526004016101a89061115a565b60405180910390fd5b808a146101f3576040517f08c379a00000000000000000000000000000000000000000000000000000000081526004016101ea906111ba565b60405180910390fd5b6000600267ffffffffffffffff811115610236577f4e487b7100000000000000000000000000000000000000000000000000000000600052604160045260246000fd5b6040519080825280602002602001820160405280156102645781602001602082028036833780820191505090505b50905082816000815181106102a2577f4e487b7100000000000000000000000000000000000000000000000000000000600052603260045260246000fd5b602002602001019073ffffffffffffffffffffffffffffffffffffffff16908173ffffffffffffffffffffffffffffffffffffffff16815250508381600181518110610317577f4e487b7100000000000000000000000000000000000000000000000000000000600052603260045260246000fd5b602002602001019073ffffffffffffffffffffffffffffffffffffffff16908173ffffffffffffffffffffffffffffffffffffffff1681525050600060018473ffffffffffffffffffffffffffffffffffffffff166370a08231336040518263ffffffff1660e01b815260040161038e91906110a7565b60206040518083038186803b1580156103a657600080fd5b505afa1580156103ba573d6000803e3d6000fd5b505050506040513d601f19601f820116820180604052508101906103de9190610e94565b6103e56103eb91906113fe565b8d8773ffffffffffffffffffffffffffffffffffffffff166370a08231336040518263ffffffff1660e01b815260040161042591906110a7565b60206040518083038186803b15801561043d57600080fd5b505afa158015610451573d6000803e3d6000fd5b505050506040513d601f19601f820116820180604052508101906104759190610e94565b6103e861048291906113fe565b61048c91906113fe565b61049691906113cd565b6104a09190611377565b90508373ffffffffffffffffffffffffffffffffffffffff1663095ea7b3898e6040518363ffffffff1660e01b81526004016104dd9291906110c2565b602060405180830381600087803b1580156104f757600080fd5b505af115801561050b573d6000803e3d6000fd5b505050506040513d601f19601f8201168201806040525081019061052f9190610dcd565b508573ffffffffffffffffffffffffffffffffffffffff166338ed17398d60008530603c4261055e9190611377565b6040518663ffffffff1660e01b815260040161057e95949392919061121a565b600060405180830381600087803b15801561059857600080fd5b505af11580156105ac573d6000803e3d6000fd5b505050506040513d6000823e3d601f19601f820116820180604052508101906105d59190610d8c565b508473ffffffffffffffffffffffffffffffffffffffff1663a9059cbb8f836040518363ffffffff1660e01b81526004016106119291906110c2565b602060405180830381600087803b15801561062b57600080fd5b505af115801561063f573d6000803e3d6000fd5b505050506040513d601f19601f820116820180604052508101906106639190610dcd565b505050505050505050505050505050565b61067c610aa4565b73ffffffffffffffffffffffffffffffffffffffff1661069a610983565b73ffffffffffffffffffffffffffffffffffffffff16146106f0576040517f08c379a00000000000000000000000000000000000000000000000000000000081526004016106e7906111da565b60405180910390fd5b60008373ffffffffffffffffffffffffffffffffffffffff166370a08231306040518263ffffffff1660e01b815260040161072b91906110a7565b60206040518083038186803b15801561074357600080fd5b505afa158015610757573d6000803e3d6000fd5b505050506040513d601f19601f8201168201806040525081019061077b9190610e94565b905060008083905060008a8a8a8a8a8a8a6040516020016107a297969594939291906110eb565b60405160208183030381529060405290508a73ffffffffffffffffffffffffffffffffffffffff1663022c0d9f848430856040518563ffffffff1660e01b81526004016107f29493929190611274565b600060405180830381600087803b15801561080c57600080fd5b505af1158015610820573d6000803e3d6000fd5b505050508673ffffffffffffffffffffffffffffffffffffffff166370a08231306040518263ffffffff1660e01b815260040161085d91906110a7565b60206040518083038186803b15801561087557600080fd5b505afa158015610889573d6000803e3d6000fd5b505050506040513d601f19601f820116820180604052508101906108ad9190610e94565b84106108ee576040517f08c379a00000000000000000000000000000000000000000000000000000000081526004016108e59061117a565b60405180910390fd5b5050505050505050505050565b610903610aa4565b73ffffffffffffffffffffffffffffffffffffffff16610921610983565b73ffffffffffffffffffffffffffffffffffffffff1614610977576040517f08c379a000000000000000000000000000000000000000000000000000000000815260040161096e906111da565b60405180910390fd5b6109816000610aac565b565b60008060009054906101000a900473ffffffffffffffffffffffffffffffffffffffff16905090565b6109b4610aa4565b73ffffffffffffffffffffffffffffffffffffffff166109d2610983565b73ffffffffffffffffffffffffffffffffffffffff1614610a28576040517f08c379a0000000000000000000000000000000000000000000000000000000008152600401610a1f906111da565b60405180910390fd5b600073ffffffffffffffffffffffffffffffffffffffff168173ffffffffffffffffffffffffffffffffffffffff161415610a98576040517f08c379a0000000000000000000000000000000000000000000000000000000008152600401610a8f9061119a565b60405180910390fd5b610aa181610aac565b50565b600033905090565b60008060009054906101000a900473ffffffffffffffffffffffffffffffffffffffff169050816000806101000a81548173ffffffffffffffffffffffffffffffffffffffff021916908373ffffffffffffffffffffffffffffffffffffffff1602179055508173ffffffffffffffffffffffffffffffffffffffff168173ffffffffffffffffffffffffffffffffffffffff167f8be0079c531659141344cd1fd0a4f28419497f9722a3daafe3b4186f6b6457e060405160405180910390a35050565b6000610b83610b7e846112e5565b6112c0565b90508083825260208201905082856020860282011115610ba257600080fd5b60005b85811015610bd25781610bb88882610cce565b845260208401935060208301925050600181019050610ba5565b5050509392505050565b600081359050610beb81611772565b92915050565b600082601f830112610c0257600080fd5b8151610c12848260208601610b70565b91505092915050565b600081519050610c2a81611789565b92915050565b60008083601f840112610c4257600080fd5b8235905067ffffffffffffffff811115610c5b57600080fd5b602083019150836001820283011115610c7357600080fd5b9250929050565b600081359050610c89816117a0565b92915050565b600081359050610c9e816117b7565b92915050565b600081359050610cb3816117ce565b92915050565b600081359050610cc8816117e5565b92915050565b600081519050610cdd816117e5565b92915050565b600060208284031215610cf557600080fd5b6000610d0384828501610bdc565b91505092915050565b600080600080600060808688031215610d2457600080fd5b6000610d3288828901610bdc565b9550506020610d4388828901610cb9565b9450506040610d5488828901610cb9565b935050606086013567ffffffffffffffff811115610d7157600080fd5b610d7d88828901610c30565b92509250509295509295909350565b600060208284031215610d9e57600080fd5b600082015167ffffffffffffffff811115610db857600080fd5b610dc484828501610bf1565b91505092915050565b600060208284031215610ddf57600080fd5b6000610ded84828501610c1b565b91505092915050565b600080600080600080600060e0888a031215610e1157600080fd5b6000610e1f8a828b01610c8f565b9750506020610e308a828b01610c8f565b9650506040610e418a828b01610ca4565b9550506060610e528a828b01610ca4565b9450506080610e638a828b01610c7a565b93505060a0610e748a828b01610c7a565b92505060c0610e858a828b01610cb9565b91505092959891949750929550565b600060208284031215610ea657600080fd5b6000610eb484828501610cce565b91505092915050565b6000610ec98383610ed5565b60208301905092915050565b610ede81611458565b82525050565b610eed81611458565b82525050565b6000610efe82611321565b610f088185611344565b9350610f1383611311565b8060005b83811015610f44578151610f2b8882610ebd565b9750610f3683611337565b925050600181019050610f17565b5085935050505092915050565b6000610f5c8261132c565b610f668185611355565b9350610f76818560208601611554565b610f7f81611645565b840191505092915050565b610f93816114d6565b82525050565b610fa2816114fa565b82525050565b610fb18161151e565b82525050565b610fc081611542565b82525050565b6000610fd3601183611366565b9150610fde82611656565b602082019050919050565b6000610ff6600283611366565b91506110018261167f565b602082019050919050565b6000611019602683611366565b9150611024826116a8565b604082019050919050565b600061103c601c83611366565b9150611047826116f7565b602082019050919050565b600061105f602083611366565b915061106a82611720565b602082019050919050565b6000611082602083611366565b915061108d82611749565b602082019050919050565b6110a1816114cc565b82525050565b60006020820190506110bc6000830184610ee4565b92915050565b60006040820190506110d76000830185610ee4565b6110e46020830184611098565b9392505050565b600060e082019050611100600083018a610f99565b61110d6020830189610f99565b61111a6040830188610fa8565b6111276060830187610fa8565b6111346080830186610f8a565b61114160a0830185610f8a565b61114e60c0830184611098565b98975050505050505050565b6000602082019050818103600083015261117381610fc6565b9050919050565b6000602082019050818103600083015261119381610fe9565b9050919050565b600060208201905081810360008301526111b38161100c565b9050919050565b600060208201905081810360008301526111d38161102f565b9050919050565b600060208201905081810360008301526111f381611052565b9050919050565b6000602082019050818103600083015261121381611075565b9050919050565b600060a08201905061122f6000830188611098565b61123c6020830187610fb7565b818103604083015261124e8186610ef3565b905061125d6060830185610ee4565b61126a6080830184611098565b9695505050505050565b60006080820190506112896000830187611098565b6112966020830186611098565b6112a36040830185610ee4565b81810360608301526112b58184610f51565b905095945050505050565b60006112ca6112db565b90506112d68282611587565b919050565b6000604051905090565b600067ffffffffffffffff821115611300576112ff611616565b5b602082029050602081019050919050565b6000819050602082019050919050565b600081519050919050565b600081519050919050565b6000602082019050919050565b600082825260208201905092915050565b600082825260208201905092915050565b600082825260208201905092915050565b6000611382826114cc565b915061138d836114cc565b9250827fffffffffffffffffffffffffffffffffffffffffffffffffffffffffffffffff038211156113c2576113c16115b8565b5b828201905092915050565b60006113d8826114cc565b91506113e3836114cc565b9250826113f3576113f26115e7565b5b828204905092915050565b6000611409826114cc565b9150611414836114cc565b9250817fffffffffffffffffffffffffffffffffffffffffffffffffffffffffffffffff048311821515161561144d5761144c6115b8565b5b828202905092915050565b6000611463826114ac565b9050919050565b60008115159050919050565b600061148182611458565b9050919050565b600061149382611458565b9050919050565b60006114a582611458565b9050919050565b600073ffffffffffffffffffffffffffffffffffffffff82169050919050565b6000819050919050565b60006114e1826114e8565b9050919050565b60006114f3826114ac565b9050919050565b60006115058261150c565b9050919050565b6000611517826114ac565b9050919050565b600061152982611530565b9050919050565b600061153b826114ac565b9050919050565b600061154d826114cc565b9050919050565b60005b83811015611572578082015181840152602081019050611557565b83811115611581576000848401525b50505050565b61159082611645565b810181811067ffffffffffffffff821117156115af576115ae611616565b5b80604052505050565b7f4e487b7100000000000000000000000000000000000000000000000000000000600052601160045260246000fd5b7f4e487b7100000000000000000000000000000000000000000000000000000000600052601260045260246000fd5b7f4e487b7100000000000000000000000000000000000000000000000000000000600052604160045260246000fd5b6000601f19601f8301169050919050565b7f616d6f756e7430206973206e6f7420302e000000000000000000000000000000600082015250565b7f4747000000000000000000000000000000000000000000000000000000000000600082015250565b7f4f776e61626c653a206e6577206f776e657220697320746865207a65726f206160008201527f6464726573730000000000000000000000000000000000000000000000000000602082015250565b7f546f6b656e3120616d6f756e747320646f206e6f74206d617463682e00000000600082015250565b7f4f776e61626c653a2063616c6c6572206973206e6f7420746865206f776e6572600082015250565b7f53656e646572206973206e6f742074686520746172676574656420706169722e600082015250565b61177b81611458565b811461178657600080fd5b50565b6117928161146a565b811461179d57600080fd5b50565b6117a981611476565b81146117b457600080fd5b50565b6117c081611488565b81146117cb57600080fd5b50565b6117d78161149a565b81146117e257600080fd5b50565b6117ee816114cc565b81146117f957600080fd5b5056fea2646970667358221220efa68c18ddeaa63d5ef7c45eebc2f387129a52664b694e50ba75459a4c96f90b64736f6c63430008040033",
  "linkReferences": {},
  "deployedLinkReferences": {}
}