{
  "_format": "hh-sol-artifact-1",
  "contractName": "Ape",
  "sourceName": "contracts/Ape.sol",
  "abi": [
    {
      "anonymous": false,
      "inputs": [
        {
          "indexed": true,
          "internalType": "address",
          "name": "previousOwner",
          "type": "address"
        },
        {
          "indexed": true,
          "internalType": "address",
          "name": "newOwner",
          "type": "address"
        }
      ],
      "name": "OwnershipTransferred",
      "type": "event"
    },
    {
      "inputs": [
        {
          "internalType": "contract IUniswapV2Pair",
          "name": "pair0",
          "type": "address"
        },
        {
          "internalType": "contract IUniswapV2Router02",
          "name": "router0",
          "type": "address"
        },
        {
          "internalType": "contract IUniswapV2Router02",
          "name": "router1",
          "type": "address"
        },
        {
          "internalType": "contract IERC20",
          "name": "token0",
          "type": "address"
        },
        {
          "internalType": "contract IERC20",
          "name": "token1",
          "type": "address"
        },
        {
          "internalType": "uint256",
          "name": "amount1",
          "type": "uint256"
        }
      ],
      "name": "ape",
      "outputs": [],
      "stateMutability": "nonpayable",
      "type": "function"
    },
    {
      "inputs": [],
      "name": "owner",
      "outputs": [
        {
          "internalType": "address",
          "name": "",
          "type": "address"
        }
      ],
      "stateMutability": "view",
      "type": "function"
    },
    {
      "inputs": [],
      "name": "renounceOwnership",
      "outputs": [],
      "stateMutability": "nonpayable",
      "type": "function"
    },
    {
      "inputs": [
        {
          "internalType": "address",
          "name": "newOwner",
          "type": "address"
        }
      ],
      "name": "transferOwnership",
      "outputs": [],
      "stateMutability": "nonpayable",
      "type": "function"
    },
    {
      "inputs": [
        {
          "internalType": "address",
          "name": "sender",
          "type": "address"
        },
        {
          "internalType": "uint256",
          "name": "amount0",
          "type": "uint256"
        },
        {
          "internalType": "uint256",
          "name": "amount1",
          "type": "uint256"
        },
        {
          "internalType": "bytes",
          "name": "data",
          "type": "bytes"
        }
      ],
      "name": "uniswapV2Call",
      "outputs": [],
      "stateMutability": "nonpayable",
      "type": "function"
    }
  ],
  "bytecode": "0x608060405234801561001057600080fd5b5061002d61002261003260201b60201c565b61003a60201b60201c565b6100fe565b600033905090565b60008060009054906101000a900473ffffffffffffffffffffffffffffffffffffffff169050816000806101000a81548173ffffffffffffffffffffffffffffffffffffffff021916908373ffffffffffffffffffffffffffffffffffffffff1602179055508173ffffffffffffffffffffffffffffffffffffffff168173ffffffffffffffffffffffffffffffffffffffff167f8be0079c531659141344cd1fd0a4f28419497f9722a3daafe3b4186f6b6457e060405160405180910390a35050565b61193b8061010d6000396000f3fe608060405234801561001057600080fd5b50600436106100575760003560e01c806310d1e85c1461005c5780631917730114610078578063715018a6146100945780638da5cb5b1461009e578063f2fde38b146100bc575b600080fd5b61007660048036038101906100719190610e56565b6100d8565b005b610092600480360381019061008d9190610f40565b6107c1565b005b61009c610a45565b005b6100a6610acd565b6040516100b391906111ff565b60405180910390f35b6100d660048036038101906100d19190610e2d565b610af6565b005b60008060008060008087878101906100f09190610f40565b9550955095509550955095503373ffffffffffffffffffffffffffffffffffffffff168b73ffffffffffffffffffffffffffffffffffffffff161461016a576040517f08c379a000000000000000000000000000000000000000000000000000000000815260040161016190611304565b60405180910390fd5b8573ffffffffffffffffffffffffffffffffffffffff163373ffffffffffffffffffffffffffffffffffffffff16146101d8576040517f08c379a00000000000000000000000000000000000000000000000000000000081526004016101cf90611364565b60405180910390fd5b60008a1461021b576040517f08c379a0000000000000000000000000000000000000000000000000000000008152600401610212906112a4565b60405180910390fd5b80891461025d576040517f08c379a000000000000000000000000000000000000000000000000000000000815260040161025490611324565b60405180910390fd5b6000600267ffffffffffffffff8111156102a0577f4e487b7100000000000000000000000000000000000000000000000000000000600052604160045260246000fd5b6040519080825280602002602001820160405280156102ce5781602001602082028036833780820191505090505b509050838160008151811061030c577f4e487b7100000000000000000000000000000000000000000000000000000000600052603260045260246000fd5b602002602001019073ffffffffffffffffffffffffffffffffffffffff16908173ffffffffffffffffffffffffffffffffffffffff16815250508281600181518110610381577f4e487b7100000000000000000000000000000000000000000000000000000000600052603260045260246000fd5b602002602001019073ffffffffffffffffffffffffffffffffffffffff16908173ffffffffffffffffffffffffffffffffffffffff16815250506000600267ffffffffffffffff8111156103fe577f4e487b7100000000000000000000000000000000000000000000000000000000600052604160045260246000fd5b60405190808252806020026020018201604052801561042c5781602001602082028036833780820191505090505b509050838160008151811061046a577f4e487b7100000000000000000000000000000000000000000000000000000000600052603260045260246000fd5b602002602001019073ffffffffffffffffffffffffffffffffffffffff16908173ffffffffffffffffffffffffffffffffffffffff168152505084816001815181106104df577f4e487b7100000000000000000000000000000000000000000000000000000000600052603260045260246000fd5b602002602001019073ffffffffffffffffffffffffffffffffffffffff16908173ffffffffffffffffffffffffffffffffffffffff168152505060008773ffffffffffffffffffffffffffffffffffffffff16631f00ca748d856040518363ffffffff1660e01b8152600401610556929190611384565b60006040518083038186803b15801561056e57600080fd5b505afa158015610582573d6000803e3d6000fd5b505050506040513d6000823e3d601f19601f820116820180604052508101906105ab9190610ed6565b6000815181106105e4577f4e487b7100000000000000000000000000000000000000000000000000000000600052603260045260246000fd5b602002602001015190508473ffffffffffffffffffffffffffffffffffffffff1663095ea7b3888e6040518363ffffffff1660e01b815260040161062992919061121a565b602060405180830381600087803b15801561064357600080fd5b505af1158015610657573d6000803e3d6000fd5b505050506040513d601f19601f8201168201806040525081019061067b9190610f17565b508673ffffffffffffffffffffffffffffffffffffffff166338ed17398d60008530610e10426106ab9190611511565b6040518663ffffffff1660e01b81526004016106cb9594939291906113b4565b600060405180830381600087803b1580156106e557600080fd5b505af11580156106f9573d6000803e3d6000fd5b505050506040513d6000823e3d601f19601f820116820180604052508101906107229190610ed6565b508573ffffffffffffffffffffffffffffffffffffffff1663a9059cbb8f836040518363ffffffff1660e01b815260040161075e92919061121a565b602060405180830381600087803b15801561077857600080fd5b505af115801561078c573d6000803e3d6000fd5b505050506040513d601f19601f820116820180604052508101906107b09190610f17565b505050505050505050505050505050565b6107c9610bee565b73ffffffffffffffffffffffffffffffffffffffff166107e7610acd565b73ffffffffffffffffffffffffffffffffffffffff161461083d576040517f08c379a000000000000000000000000000000000000000000000000000000000815260040161083490611344565b60405180910390fd5b60008373ffffffffffffffffffffffffffffffffffffffff166370a08231306040518263ffffffff1660e01b815260040161087891906111ff565b60206040518083038186803b15801561089057600080fd5b505afa1580156108a4573d6000803e3d6000fd5b505050506040513d601f19601f820116820180604052508101906108c89190610fc9565b905060008083905060008989898989896040516020016108ed96959493929190611243565b60405160208183030381529060405290508973ffffffffffffffffffffffffffffffffffffffff1663022c0d9f848430856040518563ffffffff1660e01b815260040161093d949392919061140e565b600060405180830381600087803b15801561095757600080fd5b505af115801561096b573d6000803e3d6000fd5b505050508673ffffffffffffffffffffffffffffffffffffffff166370a08231306040518263ffffffff1660e01b81526004016109a891906111ff565b60206040518083038186803b1580156109c057600080fd5b505afa1580156109d4573d6000803e3d6000fd5b505050506040513d601f19601f820116820180604052508101906109f89190610fc9565b8411610a39576040517f08c379a0000000000000000000000000000000000000000000000000000000008152600401610a30906112c4565b60405180910390fd5b50505050505050505050565b610a4d610bee565b73ffffffffffffffffffffffffffffffffffffffff16610a6b610acd565b73ffffffffffffffffffffffffffffffffffffffff1614610ac1576040517f08c379a0000000000000000000000000000000000000000000000000000000008152600401610ab890611344565b60405180910390fd5b610acb6000610bf6565b565b60008060009054906101000a900473ffffffffffffffffffffffffffffffffffffffff16905090565b610afe610bee565b73ffffffffffffffffffffffffffffffffffffffff16610b1c610acd565b73ffffffffffffffffffffffffffffffffffffffff1614610b72576040517f08c379a0000000000000000000000000000000000000000000000000000000008152600401610b6990611344565b60405180910390fd5b600073ffffffffffffffffffffffffffffffffffffffff168173ffffffffffffffffffffffffffffffffffffffff161415610be2576040517f08c379a0000000000000000000000000000000000000000000000000000000008152600401610bd9906112e4565b60405180910390fd5b610beb81610bf6565b50565b600033905090565b60008060009054906101000a900473ffffffffffffffffffffffffffffffffffffffff169050816000806101000a81548173ffffffffffffffffffffffffffffffffffffffff021916908373ffffffffffffffffffffffffffffffffffffffff1602179055508173ffffffffffffffffffffffffffffffffffffffff168173ffffffffffffffffffffffffffffffffffffffff167f8be0079c531659141344cd1fd0a4f28419497f9722a3daafe3b4186f6b6457e060405160405180910390a35050565b6000610ccd610cc88461147f565b61145a565b90508083825260208201905082856020860282011115610cec57600080fd5b60005b85811015610d1c5781610d028882610e18565b845260208401935060208301925050600181019050610cef565b5050509392505050565b600081359050610d358161187b565b92915050565b600082601f830112610d4c57600080fd5b8151610d5c848260208601610cba565b91505092915050565b600081519050610d7481611892565b92915050565b60008083601f840112610d8c57600080fd5b8235905067ffffffffffffffff811115610da557600080fd5b602083019150836001820283011115610dbd57600080fd5b9250929050565b600081359050610dd3816118a9565b92915050565b600081359050610de8816118c0565b92915050565b600081359050610dfd816118d7565b92915050565b600081359050610e12816118ee565b92915050565b600081519050610e27816118ee565b92915050565b600060208284031215610e3f57600080fd5b6000610e4d84828501610d26565b91505092915050565b600080600080600060808688031215610e6e57600080fd5b6000610e7c88828901610d26565b9550506020610e8d88828901610e03565b9450506040610e9e88828901610e03565b935050606086013567ffffffffffffffff811115610ebb57600080fd5b610ec788828901610d7a565b92509250509295509295909350565b600060208284031215610ee857600080fd5b600082015167ffffffffffffffff811115610f0257600080fd5b610f0e84828501610d3b565b91505092915050565b600060208284031215610f2957600080fd5b6000610f3784828501610d65565b91505092915050565b60008060008060008060c08789031215610f5957600080fd5b6000610f6789828a01610dd9565b9650506020610f7889828a01610dee565b9550506040610f8989828a01610dee565b9450506060610f9a89828a01610dc4565b9350506080610fab89828a01610dc4565b92505060a0610fbc89828a01610e03565b9150509295509295509295565b600060208284031215610fdb57600080fd5b6000610fe984828501610e18565b91505092915050565b6000610ffe838361100a565b60208301905092915050565b61101381611567565b82525050565b61102281611567565b82525050565b6000611033826114bb565b61103d81856114de565b9350611048836114ab565b8060005b838110156110795781516110608882610ff2565b975061106b836114d1565b92505060018101905061104c565b5085935050505092915050565b6000611091826114c6565b61109b81856114ef565b93506110ab818560208601611663565b6110b481611725565b840191505092915050565b6110c8816115e5565b82525050565b6110d781611609565b82525050565b6110e68161162d565b82525050565b6110f581611651565b82525050565b6000611108601183611500565b915061111382611736565b602082019050919050565b600061112b600283611500565b91506111368261175f565b602082019050919050565b600061114e602683611500565b915061115982611788565b604082019050919050565b6000611171601183611500565b915061117c826117d7565b602082019050919050565b6000611194601c83611500565b915061119f82611800565b602082019050919050565b60006111b7602083611500565b91506111c282611829565b602082019050919050565b60006111da602083611500565b91506111e582611852565b602082019050919050565b6111f9816115db565b82525050565b60006020820190506112146000830184611019565b92915050565b600060408201905061122f6000830185611019565b61123c60208301846111f0565b9392505050565b600060c08201905061125860008301896110ce565b61126560208301886110dd565b61127260408301876110dd565b61127f60608301866110bf565b61128c60808301856110bf565b61129960a08301846111f0565b979650505050505050565b600060208201905081810360008301526112bd816110fb565b9050919050565b600060208201905081810360008301526112dd8161111e565b9050919050565b600060208201905081810360008301526112fd81611141565b9050919050565b6000602082019050818103600083015261131d81611164565b9050919050565b6000602082019050818103600083015261133d81611187565b9050919050565b6000602082019050818103600083015261135d816111aa565b9050919050565b6000602082019050818103600083015261137d816111cd565b9050919050565b600060408201905061139960008301856111f0565b81810360208301526113ab8184611028565b90509392505050565b600060a0820190506113c960008301886111f0565b6113d660208301876110ec565b81810360408301526113e88186611028565b90506113f76060830185611019565b61140460808301846111f0565b9695505050505050565b600060808201905061142360008301876111f0565b61143060208301866111f0565b61143d6040830185611019565b818103606083015261144f8184611086565b905095945050505050565b6000611464611475565b90506114708282611696565b919050565b6000604051905090565b600067ffffffffffffffff82111561149a576114996116f6565b5b602082029050602081019050919050565b6000819050602082019050919050565b600081519050919050565b600081519050919050565b6000602082019050919050565b600082825260208201905092915050565b600082825260208201905092915050565b600082825260208201905092915050565b600061151c826115db565b9150611527836115db565b9250827fffffffffffffffffffffffffffffffffffffffffffffffffffffffffffffffff0382111561155c5761155b6116c7565b5b828201905092915050565b6000611572826115bb565b9050919050565b60008115159050919050565b600061159082611567565b9050919050565b60006115a282611567565b9050919050565b60006115b482611567565b9050919050565b600073ffffffffffffffffffffffffffffffffffffffff82169050919050565b6000819050919050565b60006115f0826115f7565b9050919050565b6000611602826115bb565b9050919050565b60006116148261161b565b9050919050565b6000611626826115bb565b9050919050565b60006116388261163f565b9050919050565b600061164a826115bb565b9050919050565b600061165c826115db565b9050919050565b60005b83811015611681578082015181840152602081019050611666565b83811115611690576000848401525b50505050565b61169f82611725565b810181811067ffffffffffffffff821117156116be576116bd6116f6565b5b80604052505050565b7f4e487b7100000000000000000000000000000000000000000000000000000000600052601160045260246000fd5b7f4e487b7100000000000000000000000000000000000000000000000000000000600052604160045260246000fd5b6000601f19601f8301169050919050565b7f616d6f756e7430206973206e6f7420302e000000000000000000000000000000600082015250565b7f4747000000000000000000000000000000000000000000000000000000000000600082015250565b7f4f776e61626c653a206e6577206f776e657220697320746865207a65726f206160008201527f6464726573730000000000000000000000000000000000000000000000000000602082015250565b7f53656e64657273206e6f74206d61746368000000000000000000000000000000600082015250565b7f546f6b656e3120616d6f756e747320646f206e6f74206d617463682e00000000600082015250565b7f4f776e61626c653a2063616c6c6572206973206e6f7420746865206f776e6572600082015250565b7f53656e646572206973206e6f742074686520746172676574656420706169722e600082015250565b61188481611567565b811461188f57600080fd5b50565b61189b81611579565b81146118a657600080fd5b50565b6118b281611585565b81146118bd57600080fd5b50565b6118c981611597565b81146118d457600080fd5b50565b6118e0816115a9565b81146118eb57600080fd5b50565b6118f7816115db565b811461190257600080fd5b5056fea2646970667358221220b154fac1af9972fff36df7fce17f62d55b04a7cc2ece7b51c849311aeafa9c9064736f6c63430008040033",
  "linkReferences": {},
  "deployedLinkReferences": {}
}